:100000000C94BD000C94CF000C94CF000C94CF0046
:100010000C94CF000C94CF000C94CF000C94CF0024
:100020000C94CF000C94CF000C94CF000C9444059A
:100030000C94CF000C94CF000C94DD040C94CF00F2
:100040000C94CF000C94CF000C94AF050C94CF000F
:100050000C94CF050C94F3050C94CF000C94CF00B6
:100060000C94CF000C94CF0086029402A202B0023E
:10007000BE02CA02D802E1026E616E00696E6600BD
:1000800000407A10F35A00A0724E18090010A5D44F
:10009000E80000E87648170000E40B54020000CAAC
:1000A0009A3B000000E1F5050000809698000000F2
:1000B00040420F000000A086010000001027000051
:1000C0000000E803000000006400000000000A00D7
:1000D000000000000100000000002C76D888DC67DA
:1000E0004F0823DFC1DFAE59E1B1B796E5E3E45332
:1000F000C63AE651997696E8E6C28426EB898C9B4F
:1001000062ED407C6FFCEFBC9C9F40F2BAA56FA5EE
:10011000F490055A2AF75C936B6CF9676DC11BFC70
:10012000E0E40D47FEF520E6B500D0ED902E03008B
:10013000943577050080841E080000204E0A0000D8
:1001400000C80C333333330F986E12831141EF8D97
:100150002114893BE65516CFFEE6DB18D1844B38D7
:100160001BF77C1D901DA4BBE424203284725E2208
:100170008100C9F124ECA1E53D2711241FBECFEF7A
:10018000D8E0DEBFCDBF23E0A0E0B1E001C01D920A
:10019000A136B207E1F70E941C020C94B30D0C9437
:1001A0000000CF9384B1896284B985B1867D85B919
:1001B00087B18C7F87B988B18C7F88B9F894A8956E
:1001C000E0E6F0E080818861808388E2808381E3DB
:1001D00087BD82E084BD92E895BD80936E002AEFD2
:1001E00030E030938900209388009BE09093810059
:1001F00090E89093820080936F0088ED8093C10017
:1002000086E08093C20083E390E09093C5008093E2
:10021000C40080E480937C008FE880937A00109281
:100220007B008FE380937E007894EDE4F3E010820E
:10023000118212821382C1E0C08711861286138652
:100240001486118A338B228B6289738980E090E057
:100250000E944D0720E030E044E353E40E9404088C
:1002600020E030E04AE754E40E94A506E7E1F1E02F
:10027000608371838283938380E090E0A0E2B2E4A4
:1002800084839583A683B78380879187A287B3876A
:1002900080E090E0A8E4B2E484879587A687B787DA
:1002A000E0E3F1E01482158216821782C08715867A
:1002B00016861786108A118A109242021092430203
:1002C000109244031092450310924603E7E2F1E0D6
:1002D0001482158216821782C08710921601E9E0F7
:1002E000F1E01482158216821782C087E0E0F1E007
:1002F00014821582168217821086CF9108959091EC
:10030000440380914503981781F08091C00085FFD8
:100310000CC0A4E4B3E0EC91F0E0EC5BFD4F808115
:100320008093C6008C918F5F8C930895662379F03B
:10033000FC016150262F30E02F5F3F4F280F391FFF
:1003400080E091918927E217F307D9F7089580E0BB
:1003500008950F931F93CF93DF93E5E4F3E0A0811B
:10036000B0E0AC5BBD4F90E59C9390819F5F908324
:10037000A081B0E0AC5BBD4F94E49C9390819F5F03
:100380009083A081B0E0AC5BBD4F23E42C939081BF
:100390009F5F9083A081B0E0AC5BBD4F2C939081B8
:1003A0009F5F9083A081B0E0AC5BBD4F4C93908188
:1003B0009F5F9083A081B0E0AC5BBD4F9AE39C93BC
:1003C00090819F5F9083A081B0E0AC5BBD4F8C9328
:1003D00080818F5F80834423A1F0EB018FEF840F36
:1003E00090E00196680F791FDF01EC91F0E08991B0
:1003F000EC5BFD4F80838C918F5F8C93C617D70782
:10040000A1F705E413E0F801C081D0E0808167E046
:10041000640F90E0841B9109835C9D4F0E949601BC
:10042000CC5BDD4F8883F80180818F5F8083DF9113
:10043000CF911F910F9108950E94D1000F2EF7E2E6
:100440004F2EF1E05F2EF02D0F2EF0E32F2EF1E076
:100450003F2EF02DC2E4D2E00F2EF3E4EF2EF2E0B7
:10046000FF2EF02D0F2EF6E4CF2EF3E0DF2EF02D31
:100470000F2EF7E1AF2EF1E0BF2EF02D0F2EF0E0A2
:100480006F2EF1E07F2EF02D0F2EF9E08F2EF1E090
:100490009F2EF02DF20184819581A681B781843F42
:1004A0009140A105B10560F0A89595B188E0892734
:1004B00085B9D20114961D921D921D921C92179718
:1004C000F10184819581A681B78184369105A105CA
:1004D000B10548F00E947F01D10114961D921D9232
:1004E0001D921C9217979881F7018081981709F443
:1004F00084C1D601EC918E2F90E08830910508F0F0
:1005000079C1FC01EC5CFF4F0C94EE0BE881F0E04C
:10051000E05DFE4F8289803509F06CC181E0F10118
:10052000818BD6018C9366C1E881F0E0E05DFE4FDF
:100530008289843421F482E0F60180835BC1D60194
:100540001C9258C1E881F0E0E05DFE4F828983345F
:1005500021F483E0F60180834DC1D6011C924AC18B
:10056000E881F0E0E05DFE4F8289833421F484E08D
:10057000F60180833FC1D6011C923CC1E881F0E0C6
:10058000E05DFE4F8289E8E4F3E0808385E0D601F8
:100590008C9330C1E881F0E0E05DFE4F82898A33C0
:1005A00021F486E0F601808325C1D6011C9222C188
:1005B00088818F5FE7E4F3E0808387E0D6018C9346
:1005C00019C12881E7E4F3E04081A8E4B3E08C910D
:1005D00030E090E0840F911D2817390709F00AC117
:1005E0006C918081695F90E0855C9E4F0E949601CE
:1005F000E881F0E0E05DFE4F92898913EDC0A7E449
:10060000B3E0EC91F0E0E15DFE4F8289833009F4C4
:1006100074C020F4813049F150F057C0853009F49E
:10062000B1C008F482C08E3F09F4CFC0DBC0F50131
:10063000608171818281938120E030E044E353E462
:100640000E94A50620E030E04AE754E40E94040836
:100650000E941E07A9E4B3E011967C936E9342E0DA
:10066000BD0180E00E94A901BDC0A7E4B3E0EC9108
:10067000F0E0E05DFE4F8289E9E4F3E08083EC91F5
:10068000F0E0EF5CFE4F8289AAE4B3E08C93E9E4EA
:10069000F3E060817181072E000C880B990B0E949A
:1006A0004F0720E030E040E251E40E94A506D5016A
:1006B00018966D937D938D939C931B9742E069E40C
:1006C00073E081E00E94A9018DC0F501648175810C
:1006D0008681978120E030E040E251E40E940408E6
:1006E0000E941707A9E4B3E011967C936E9342E051
:1006F000BD0182E00E94A90175C0F5016485758580
:100700008685978520E030E040E251E40E940408AD
:100710000E941707A9E4B3E011967C936E9342E020
:10072000BD0183E00E94A9015DC0F30180858111B4
:100730001AC0A7E4B3E0EC91F0E0E05DFE4F8289DF
:10074000E9E4F3E08083EC91F0E0EF5CFE4F828916
:10075000AAE4B3E08C93E9E4F3E080819181909383
:10076000600380935F0380915F0390916003A9E42D
:10077000B3E011969C938E9342E0BD0184E00E9409
:10078000A90130C0A7E4B3E0EC91F0E0E05DFE4FDA
:1007900082898F3F21F481E0F30180870BC0A7E4B9
:1007A000B3E0EC91F0E0E05DFE4F8289811102C080
:1007B000F3011086A7E4B3E06C9170E06E5B7E4FAE
:1007C00041E085E00E94A9010DC040E060E070E0DA
:1007D0008EEF0E94A90106C040E060E070E08FEF5C
:1007E0000E94A901F101118A158616861786108AC2
:1007F000F601108288818F5F8883F1018585968557
:10080000A785B089843F9140A105B10568F0D10169
:1008100051961C92F101158616861786108AD7010B
:100820008C918883F6011082F40184819581A681E0
:10083000B78184369105A105B10508F46CC06091BB
:100840005F037091600380E090E00E944D0720E01C
:1008500030E044E353E40E94040820E030E04AE73B
:1008600054E40E94A506D5016D937D938D939C93CE
:10087000139702E111E0F8016081718180E090E05E
:100880000E944D0720E030EC4FE754E40E94A5069B
:1008900020E030E040EA50E40E9404082EEE3CE7FD
:1008A00049EA51E40E94040828EB3EE145E950E49E
:1008B0000E943306D50114966D937D938D939C937E
:1008C0001797F8016281738180E090E00E944D07E4
:1008D00020E030EC4FE754E40E94A50620E030E031
:1008E00040EA50E40E94040820E030E040EA51E48D
:1008F0000E940408D5011C966D937D938D939C9363
:100900001F97EAE7F0E0808180648083F40114821D
:10091000158216821782F30184819581A681B781A1
:1009200080319742A105B10508F4B4CDD5011496E4
:100930006D917D918D919C91179718962D913D9178
:100940004D915C911B970E94FF071816E4F480916B
:100950005F0390916003833C914068F014C08091E4
:100960005F0390916003C29700F5F3011482158232
:100970001682178289CDEDE4F3E082899389C296CD
:10098000938B828BF2CFD50114966D917D918D91D1
:100990009C91179718962D913D914D915C911B97C5
:1009A0000E94A0068823DCF2E0CFEDE4F3E0828928
:1009B0009389C297938B828BD8CF1F920F920FB6D9
:1009C0000F9211242F934F935F936F937F938F9385
:1009D0009F93AF93BF93EF93FF9380915503882329
:1009E000E9F0EDE4F3E080819181A281B381499641
:1009F000A11DB11D80839183A283B38380819181E6
:100A0000A281B38180329E44A105B10538F0289AB5
:100A1000108211821282138281E0818B80915E03A9
:100A2000882311F1EDE4F3E081859285A385B485F7
:100A30004996A11DB11D81879287A387B4874185FF
:100A40005285638574858289938988519C4FA0E083
:100A5000B0E0481759076A077B0730F028981186DD
:100A6000128613861486118AFF91EF91BF91AF9180
:100A70009F918F917F916F915F914F912F910F90E7
:100A80000FBE0F901F9018951F920F920FB60F92E6
:100A900011248F939F93AF93BF93EF93FF93809114
:100AA0003801882369F0E0E3F1E084819581A68133
:100AB000B7810196A11DB11D84839583A683B78359
:100AC00080914101882369F0E0E3F1E08585968516
:100AD000A785B0890196A11DB11D85879687A78737
:100AE000B08B80912F01882369F0E7E2F1E08481E7
:100AF0009581A681B7810196A11DB11D848395833F
:100B0000A683B78380911101882369F0E9E0F1E0C1
:100B100084819581A681B7810196A11DB11D848331
:100B20009583A683B78380910801882369F0E0E06C
:100B3000F1E084819581A681B7810196A11DB11D47
:100B400084839583A683B783FF91EF91BF91AF9183
:100B50009F918F910F900FBE0F901F9018951F922D
:100B60000F920FB60F9211248F93AF93BF93EF9311
:100B7000FF93A3E4B2E0EC91F0E08091C600E05D69
:100B8000FE4F828B8C918F5F8C93FF91EF91BF9181
:100B9000AF918F910F900FBE0F901F9018951F92DD
:100BA0000F920FB60F9211242F933F934F935F93A1
:100BB0006F937F938F939F93AF93BF93EF93FF9325
:100BC0000E947F01FF91EF91BF91AF919F918F9113
:100BD0007F916F915F914F913F912F910F900FBE39
:100BE0000F901F9018951F920F920FB60F9211241D
:100BF0008F939F93EF93FF9380911601882319F0B1
:100C0000813051F011C080917800909179009093DB
:100C100013018093120108C08091780090917900AF
:100C20009093150180931401ECE7F0E08081807FC0
:100C30008083E2E1F1E084818F5F8483848182306C
:100C400010F01092160190911601ECE7F0E080810F
:100C5000892B8083FF91EF919F918F910F900FBE11
:100C60000F901F9018955058BB27AA270E944B063B
:100C70000C94C5070E94B70738F00E94BE0720F009
:100C800039F49F3F19F426F40C94B4070EF4E09560
:100C9000E7FB0C94AE07E92F0E94D60758F3BA176A
:100CA000620773078407950720F079F4A6F50C9482
:100CB000F8070EF4E0950B2EBA2FA02D0B01B90109
:100CC00090010C01CA01A0011124FF27591B99F0C2
:100CD000593F50F4503E68F11A16F040A22F232FCE
:100CE000342F4427585FF3CF469537952795A7951E
:100CF000F0405395C9F77EF41F16BA0B620B730BC5
:100D0000840BBAF09150A1F0FF0FBB1F661F771F35
:100D1000881FC2F70EC0BA0F621F731F841F48F4EA
:100D2000879577956795B795F7959E3F08F0B0CF73
:100D30009395880F08F09927EE0F9795879508955A
:100D40000E948A0708F481E008950E94B9060C9475
:100D5000C5070E94BE0758F00E94B70740F029F46B
:100D60005F3F29F00C94AE0751110C94F9070C94D5
:100D7000B4070E94D60768F39923B1F3552391F382
:100D8000951B550BBB27AA2762177307840738F0FA
:100D90009F5F5F4F220F331F441FAA1FA9F335D057
:100DA0000E2E3AF0E0E832D091505040E695001C0B
:100DB000CAF72BD0FE2F29D0660F771F881FBB1FC5
:100DC000261737074807AB07B0E809F0BB0B802DA3
:100DD000BF01FF2793585F4F3AF09E3F510578F0CF
:100DE0000C94AE070C94F9075F3FE4F3983ED4F3FC
:100DF000869577956795B795F7959F5FC9F7880FA3
:100E0000911D9695879597F90895E1E0660F771FF4
:100E1000881FBB1F621773078407BA0720F0621B85
:100E2000730B840BBA0BEE1F88F7E09508950E94B0
:100E30001E076894B1110C94F90708950E94DE070B
:100E400088F09F5798F0B92F9927B751B0F0E1F08B
:100E5000660F771F881F991F1AF0BA95C9F714C03B
:100E6000B13091F00E94F807B1E008950C94F807B2
:100E7000672F782F8827B85F39F0B93FCCF3869574
:100E800077956795B395D9F73EF4909580957095D1
:100E900061957F4F8F4F9F4F0895E89409C097FB4E
:100EA0003EF490958095709561957F4F8F4F9F4F41
:100EB0009923A9F0F92F96E9BB279395F695879585
:100EC00077956795B795F111F8CFFAF4BB0F11F448
:100ED00060FF1BC06F5F7F4F8F4F9F4F16C08823EF
:100EE00011F096E911C0772321F09EE8872F762F25
:100EF00005C0662371F096E8862F70E060E02AF066
:100F00009A95660F771F881FDAF7880F9695879551
:100F100097F90895990F0008550FAA0BE0E8FEEF26
:100F200016161706E807F907C0F012161306E407AD
:100F3000F50798F0621B730B840B950B39F40A26A6
:100F400061F0232B242B252B21F408950A2609F484
:100F5000A140A6958FEF811D811D089597F99F6788
:100F600080E870E060E008959FEF80EC0895002431
:100F70000A941616170618060906089500240A94FE
:100F800012161306140605060895092E0394000C84
:100F900011F4882352F0BB0F40F4BF2B11F460FF13
:100FA00004C06F5F7F4F8F4F9F4F089557FD90583C
:100FB000440F551F59F05F3F71F04795880F97FB1D
:100FC000991F61F09F3F79F08795089512161306D7
:100FD0001406551FF2CF4695F1DF08C01616170606
:100FE0001806991FF1CF869571056105089408953B
:100FF000E894BB2766277727CB0197F908950E94CD
:101000008A0708F48FEF08950E9417080C94C5070B
:101010000E94B70738F00E94BE0720F0952311F018
:101020000C94AE070C94B40711240C94F9070E9499
:10103000D60770F3959FC1F3950F50E0551F629F3F
:10104000F001729FBB27F00DB11D639FAA27F00D21
:10105000B11DAA1F649F6627B00DA11D661F829F48
:101060002227B00DA11D621F739FB00DA11D621F2D
:10107000839FA00D611D221F749F3327A00D611D4A
:10108000231F849F600D211D822F762F6A2F11242C
:101090009F5750409AF0F1F088234AF0EE0FFF1F5F
:1010A000BB1F661F771F881F91505040A9F79E3FB6
:1010B000510580F00C94AE070C94F9075F3FE4F300
:1010C000983ED4F3869577956795B795F795E7950C
:1010D0009F5FC1F7FE2B880F911D9695879597F915
:1010E0000895A0E1B0E0E7E7F8E00C94F40B7C0190
:1010F0001B016A01FC0117821682838181FF44C3B0
:101100009E012F5F3F4F3901F7019381F10193FD5C
:10111000859193FF81911F01882309F431C38532A2
:1011200039F493FD859193FF81911F01853239F444
:10113000B70190E00E94190D56016501E5CF10E05E
:10114000512C912CFFE1F915D8F08B3279F038F45D
:10115000803279F08332A1F4F92DF0612EC08D3206
:1011600061F0803369F4292D21602DC0392D326062
:10117000932E892D8460982E2AC0E92DE86015C031
:1011800097FC2DC020ED280F2A3088F496FE06C06B
:101190003AE0139F200D1124122F19C08AE0589EA7
:1011A000200D1124522EE92DE0629E2E10C08E32A9
:1011B00031F496FCE5C2F92DF0649F2E08C08C3600
:1011C00021F4292D2068922E02C0883641F4F101C5
:1011D00093FD859193FF81911F018111B3CF9BEB0B
:1011E000980F933020F4992D9061805E07C09BE9A1
:1011F000980F933008F066C1992D9F7E96FF16E0F8
:101200009F73992E853619F49064992E08C08636FE
:1012100021F4392F3068932E02C01111115097FE1E
:1012200007C01C3350F444244394410E27E00BC004
:10123000183038F027E017E005C027E09CE3492E7E
:1012400002C0212F412C560184E0A80EB11CF601EA
:101250006081718182819381042DA3010E942B0CF6
:101260006C01F981FC87F0FF02C0F3FF06C091FC1E
:1012700006C092FE06C000E205C00DE203C00BE20C
:1012800001C000E08C858C7019F001115AC29BC21C
:1012900097FE10C04C0CFC85F4FF04C08A8181339A
:1012A00009F44A94141474F528E0241578F588E0BC
:1012B000482E2CC096FC2AC0812F90E08C159D05ED
:1012C0009CF03CEFC3163FEFD30674F0892D806885
:1012D000982E0AC0E2E0F0E0EC0FFD1FE10FF11DD7
:1012E0008081803319F411501111F4CF97FE0EC094
:1012F00044244394410E812F90E0C816D9062CF463
:101300001C1904C04424439401C010E097FE06C099
:101310001C141D0434F4C601019605C085E090E05C
:1013200002C081E090E001110196112331F0212FDC
:1013300030E02F5F3F4F820F931F252D30E0821743
:10134000930714F4581A01C0512C892D897049F45F
:10135000552039F0B70180E290E00E94190D5A94AF
:10136000F7CF002329F0B701802F90E00E94190DDC
:1013700093FC09C0552039F0B70180E390E00E944A
:10138000190D5A94F7CF97FE4CC04601D7FE02C004
:10139000812C912CC60188199909F301E80FF91FD6
:1013A000FE87ED87960124193109388B2F87012F8D
:1013B00010E01195019511093FEF8316930629F46A
:1013C000B7018EE290E00E94190DC814D9044CF0C8
:1013D0008F8598898815990524F4ED85FE8581818E
:1013E00001C080E3F1E08F1A91082D853E852F5FC3
:1013F0003F4F3E872D87801691062CF0B70190E075
:101400000E94190DD9CFC814D90441F49A8196339A
:1014100020F4953319F43C8534FF81E3B70190E063
:101420004EC08A81813319F09C859F7E9C87B701CD
:1014300090E00E94190D111105C094FC18C085E6BA
:1014400090E017C0B7018EE290E00E94190D1E5F78
:1014500082E001E0080FF301E80FF11D8081B70180
:1014600090E00E94190D802F0113F3CFE6CF85E4A1
:1014700090E0B7010E94190DD7FC06C0C114D10439
:1014800041F4EC85E4FF05C0D194C194D1088DE20C
:1014900001C08BE2B70190E00E94190D80E32AE0C1
:1014A000C216D1042CF08F5FFAE0CF1AD108F7CF23
:1014B000B70190E00E94190DB701C601C0960E94C5
:1014C000190D54C1833631F0833779F0833509F033
:1014D00056C020C0560132E0A30EB11CF601808137
:1014E000898301E010E0630112C05601F2E0AF0E03
:1014F000B11CF601C080D18096FE03C0612F70E060
:1015000002C06FEF7FEFC6010E940E0D8C01F92D16
:10151000FF7714C0560122E0A20EB11CF601C08074
:10152000D18096FE03C0612F70E002C06FEF7FEFA5
:10153000C6010E94030D8C01F92DF0689F2EF3FD6A
:101540001AC0852D90E008171907A8F4B70180E2AA
:1015500090E00E94190D5A94F4CFF60197FC859102
:1015600097FE81916F01B70190E00E94190D511013
:101570005A94015011090115110579F7F7C0843605
:1015800011F0893661F5560197FE09C024E0A20EDC
:10159000B11CF60160817181828193810AC0F2E001
:1015A000AF0EB11CF60160817181072E000C880B13
:1015B000990BF92DFF769F2E97FF09C09095809586
:1015C000709561957F4F8F4F9F4FF0689F2E2AE057
:1015D00030E0A3010E94550DC82EC6183FC0092D4A
:1015E000853721F40F7E2AE030E01DC0097F8F3659
:1015F00091F018F4883559F0C3C0803719F0883756
:1016000011F0BEC0006104FF09C0046007C094FE71
:1016100008C0066006C028E030E005C020E130E0E8
:1016200002C020E132E0560107FF09C084E0A80EA5
:10163000B11CF601608171818281938108C0F2E062
:10164000AF0EB11CF6016081718180E090E0A301D2
:101650000E94550DC82EC6180F77902E96FE0BC00F
:10166000092D0E7FC11650F494FE0AC092FC08C0EA
:10167000092D0E7E05C0DC2C092D03C0DC2C01C019
:10168000D12E04FF0DC0FE01EC0DF11D80818033D1
:1016900011F4097E09C002FF06C0D394D39404C09C
:1016A000802F867809F0D39403FD11C000FF06C097
:1016B0001C2DD51480F4150D1D190DC0D51458F42A
:1016C000B70180E290E00E94190DD394F7CFD514B2
:1016D00010F45D1801C0512C04FF10C0B70180E365
:1016E00090E00E94190D02FF17C001FD03C088E7BA
:1016F00090E002C088E590E0B7010CC0802F8678AA
:1017000059F001FF02C08BE201C080E207FD8DE2CB
:10171000B70190E00E94190DC11638F4B70180E3BB
:1017200090E00E94190D1150F7CFCA94F301EC0D0F
:10173000F11D8081B70190E00E94190DC110F5CF15
:1017400015C0F4E0F51560F584E0581A93FE1FC04B
:10175000011127C02C8523FF2AC008E710E0392D8E
:101760003071932EF8018491811124C0552009F421
:10177000E4CCB70180E290E00E94190D5A94F6CFB4
:10178000F7018681978126C08FEF9FEF23C0B701B5
:1017900080E290E00E94190D5A945110F8CFD8CFF2
:1017A000512CB701802F90E00E94190DD3CF0CE788
:1017B00010E0D5CF91108052B70190E00E94190D32
:1017C0000F5F1F4FCFCF23E0251510F483E0BDCF6F
:1017D000512CC0CF6096E2E10C94100CEE0FFF1F6D
:1017E0000590F491E02D09942F923F924F925F92D1
:1017F0006F927F928F929F92AF92BF92CF92DF9221
:10180000EF92FF920F931F93CF93DF93CDB7DEB785
:10181000CA1BDB0B0FB6F894DEBF0FBECDBF099419
:101820002A88398848885F846E847D848C849B8470
:10183000AA84B984C884DF80EE80FD800C811B817E
:10184000AA81B981CE0FD11D0FB6F894DEBF0FBEAD
:10185000CDBFED010895283008F027E03327DA01E5
:10186000990F311D87FD916000966105710539F46E
:1018700032602E5F3D9330E32A95E1F708959F3F54
:1018800030F080387105610509F03C5F3C5F3D93A5
:10189000913008F08068911DDF93CF931F930F93D1
:1018A000FF92EF92192F987F9695E92F969596952E
:1018B000E90FFF27E652FF4F99273327EE24FF2435
:1018C000A701E70105900894079428F4360FE71E56
:1018D000F81E491F511D660F771F881F991F069418
:1018E000A1F70590079428F4E70EF81E491F561F2C
:1018F000C11D770F881F991F661F0694A1F70590D9
:10190000079428F4F80E491F561FC71FD11D880FD2
:10191000991F661F771F0694A1F70590079420F47E
:10192000490F561FC71FD81F990F661F771F881FA3
:101930000694A9F784911095177041F0D695C79534
:1019400057954795F794E7941A95C1F7E0E8F0E0CA
:1019500068941590159135916591959105907FE268
:101960007395E118F10A430B560BC90BD009C0F768
:10197000E10CF11E431F561FC91FD01D7EF47033AA
:1019800011F48A95E6CFE894015030F0080F0AF47C
:101990000027021708F4202F2395022F7A3328F00E
:1019A00079E37D932A95E9F710C07D932A9589F60E
:1019B000069497956795379517951794E118F10A4E
:1019C000430B560BC90BD00998F023957E91739564
:1019D0007A3308F070E37C932013B8F77E9170613E
:1019E0007D9330F0839571E37D9370E32A95E1F761
:1019F0001124EF90FF900F911F91CF91DF919927C4
:101A000087FD90950895FC0105906150704001108C
:101A1000D8F7809590958E0F9F1F0895FC01615017
:101A2000704001900110D8F7809590958E0F9F1F00
:101A300008950F931F93CF93DF93FB01238121FD23
:101A400003C08FEF9FEF2CC022FF16C04681578145
:101A5000248135814217530744F4A081B1819D014F
:101A60002F5F3F4F318320838C93268137812F5FF7
:101A70003F4F3783268314C08B01EC01FB010084A8
:101A8000F185E02D0995892BE1F6D80116968D9107
:101A90009C911797019617969C938E931697CE015B
:101AA000DF91CF911F910F910895FA01AA27283055
:101AB00051F1203181F1E8946F936E7F6E5F7F4F1B
:101AC0008F4F9F4FAF4FB1E03ED0B4E03CD0670F97
:101AD000781F891F9A1FA11D680F791F8A1F911DEA
:101AE000A11D6A0F711D811D911DA11D20D009F43A
:101AF00068943F912AE0269F11243019305D31937C
:101B0000DEF6CF010895462F4770405D4193B3E064
:101B10000FD0C9F7F6CF462F4F70405D4A3318F00B
:101B2000495D31FD4052419302D0A9F7EACFB4E0BC
:101B3000A6959795879577956795BA95C9F7009774
:101B40006105710508959B01AC010A2E0694579515
:101B5000479537952795BA95C9F7620F731F841F6C
:0A1B6000951FA01D0895F894FFCF13
:00000001FF
